:100000000215B002151ED284021C9F02178AC2A8D4
:10001000C2AA2202163C8E538F548D55121C941284
:100020001CA312000EE47899F6AD54AC53AF5512F0
:100030001475D3EF9400EE94004003121BDE021CF3
:010040009A25
:10004300020FE6121AC5D2AFD288C28A121C9A22B4
:10005300021A78788C12079978941207A5EB2FFF70
:10006300EA3EFEE93DFDE83CFCAB1BAA1AA919A830
:1000730018C312070B401612000E121841AF1BAE25
:100083001AAD19AC1878941207E2121C9A22121BAB
:10009300C00217E753D1F7220216BAEC4D6011E8FC
:1000A300497017ED33EC3304600DE4FCFFFEFD22D1
:1000B300E933E8330470F80202EE1202B95804601F
:1000C30009E4CC248150062850090202F828400391
:1000D3000202F5C0E0EB4A7044B98006D0E0FB02AF
:1000E30002E4EF4E701CBD8008EBFFEAFEE9FD80E1
:1000F300EBE98DF0A4FEE5F0020187E9CDF9EAFE14
:10010300EBFFEF89F0A4FCE5F0CE89F0A42EFFE429
:1001130035F0CD89F0A42DFEE435F08067EF4E7005
:1001230005BD80D780C3EF8BF0A4ACF0EE8BF0A4B9
:100133002CFCE435F0F8EF8AF0A42CE5F038FCE46D
:1001430033CB8DF0A42CFCE5F03BF8EE8AF0A42C25
:10015300FCE5F038F8E433CF89F0A42CFCE5F03863
:10016300CF3400CE89F0A42FFFE5F03EFEE433C97F
:100173008DF0A42EFEE5F039CD8AF0A42FFFE5F033
:100183003EFEE43DFD33D0E0FB50070BBB000F0206
:1001930002F8EC2CFCEF33FFEE33FEED33FD0202ED
:1001A300D00202F8EC5D046005E859047003020212
:1001B300EE1202B9580460F6EC4860F2EC7004FDEC
:1001C300FEFF22C860DB2481C85009C39860025037
:1001D300060202F59850CAF582E9294B4A7005AB2D
:1001E300820202E475F0007C1A7880C3EF9BEE9ADA
:1001F300ED99400DC3EF9BFFEE9AFEED99FDE842AA
:10020300F0DC23ACF0D0E0FFD0E0FED0E0FDAB8229
:1002130020E7101BEB60BAEC2CFCEF33FFEE33FE50
:10022300ED33FD0202D0E803F830E705C0F075F0C6
:1002330000EF2FFFEE33FEED33FD40B830E7C28011
:10024300AA75F020800E75F010800575F0087D000A
:100253007E007F003392D530D5031206FDEC334088
:1002630010EF33FFEE33FEED33FDEC33FCD5F0ED51
:1002730022E5F0247EA2D513CC92E7CDCEFF22ED6A
:10028300D2E7CD33EC3392D524814006E4FFFEFD63
:10029300FC22FCE4CFCECDCC24E0501174FF80EDE2
:1002A300C3CC13CCCD13CDCE13CECF13CF0470F06C
:1002B30030D5DE0206FDE9D2E7C933E833F892D53B
:1002C300EDD2E7CD33EC33FC5002B2D522EC30E76C
:1002D300100FBF000C0EBE00080DBD00040BEB6039
:1002E30014A2D5EB13FCED92E7FD2274FFFCFDFE97
:1002F300FF22E480F8A2D574FF13FC7D80E480EF35
:10030300F920E72824F950037907E4F42402FB18C1
:10031300DBFDE624FB5014E9600DE4F618E604F671
:10032300B40A08E4F6D9F57401F60A22C2D522ED1F
:1003330033EC3392D5FA602AB4FF33EDC2E77BFF87
:1003430060067A037957E4227A03796020D5047A28
:1003530003795B224E614E002B494E46002D494ED8
:100363004600E47A08F608DAFC7B00740722E8C04A
:10037300E0ECC0E0EDC0E0EEC0E0EFC0E0EA75F015
:1003830010A4CAABF075F04DA42BFBE435F0FCEAE6
:100393002410FAEB34C5FBEC34D9FCEDC2E7FF754E
:1003A300F056A4F42411C5F0F434C58FF0A42AE563
:1003B300F03BE43CF620E71412055DD0E0FFD0E00B
:1003C300FED0E0FDD0E0FC1201A78014F404120576
:1003D3005DD0E0FFD0E0FED0E0FDD0E0FC12009E57
:1003E300D0E0F8E6FAEDD2E7CD33EC332482FBE438
:1003F300C3CF33CFCE33CECD33CD33DBF37B0775D2
:10040300F00A846004F6081B0AE5F0F6088FF0741E
:100413000AA4FFACF08EF0740AA42CFEACF05001D9
:100423000C8DF0740AA42CFDE435F0F608DBDE74C1
:1004330007220202EEE86480F8E933E8336011042E
:1004430060F0ED33EC337009E8FCE9FDEAFEEBFF05
:10045300220460DED3EB9FEA9EE99DE8C2E78CF0BD
:10046300C2F795F0400CE8CCF8E9CDF9EACEFAEB07
:10047300CFFB1202B985D0F05804700320D5B3E83E
:100483000470075002B2D50202F892D5EC0460F76B
:10049300E4CCC0E0C398F8603B94186008400DD0EA
:1004A300E0FB0202D0E4FBFAC9FC8028E830E40652
:1004B300E4C9FBE4CAFCE830E305E4C9CACBFCE8C1
:1004C30054076010F8C3E913F9EA13FAEB13FBECD2
:1004D30013FCD8F130F52FC3E49CFCEF9BFFEE9A9D
:1004E300FEED99FDD0E0FBEF4E4D4C701222DB0385
:1004F3000202F5EC2CFCEF33FFEE33FEED33FDEDA2
:1005030030E7EB0202D0EF2BFFEE3AFEED39FDD0E0
:10051300E0FB50130BBB00030202F8ED13FDEE13D7
:10052300FEEF13FFEC13FC0202D03F8000004120DA
:10053300000042C80000447A0000461C400047C344
:100543005000497424004B1896804CBEBC205A0EB0
:100553001BCA6753C21C749DC5AEFB60065407607B
:100563001C232312058BEB543860091205771205FF
:100573008612009EECF8EDF9EEFAEFCB22EB1205B2
:100583008680F1543803241C90052DFE93FC0EEE57
:1005930093FD0EEE930ECE93FF22E709F608DFFAE2
:1005A3008046E709F208DFFA803E88828C83E709F8
:1005B300F0A3DFFA8032E309F608DFFA8078E30973
:1005C300F208DFFA807088828C83E309F0A3DFFAF4
:1005D300806489828A83E0A3F608DFFA80588982DF
:1005E3008A83E0A3F208DFFA804C80D280FA80C6C7
:1005F30080D4806980F28033801080A680EA809A5C
:1006030080A880DA80E280CA803389828A83ECFA08
:10061300E493A3C8C582C8CCC583CCF0A3C8C58264
:10062300C8CCC583CCDFE9DEE7800D89828A83E409
:1006330093A3F608DFF9ECFAA9F0EDFB2289828A8D
:1006430083ECFAE0A3C8C582C8CCC583CCF0A3C8A9
:10065300C582C8CCC583CCDFEADEE880DB89828A29
:1006630083E493A3F208DFF980CC88F0EF60010EF6
:100673004E60C388F0ED2402B4040050B9F582EB58
:100683002402B4040050AF23234582239005ED7365
:10069300BB010689828A83E0225002E722BBFE0265
:1006A300E32289828A83E49322BB010CE58229F544
:1006B30082E5833AF583E0225006E92582F8E622B3
:1006C300BBFE06E92582F8E222E58229F582E5836D
:1006D3003AF583E49322BB010689828A83F0225090
:1006E30002F722BBFE01F322EF8DF0A4A8F0CF8C1A
:1006F300F0A428CE8DF0A42EFE22C3E49FFFE49E37
:10070300FEE49DFDE49CFC22EB9FF5F0EA9E42F0A3
:10071300E99D42F0E89C45F022E8600FEFC333FF08
:10072300EE33FEED33FDEC33FCD8F122BB01078938
:10073300828A830208A65005E9F8020799BBFE05E1
:10074300E9F80208B289828A830208BEBB010DE57B
:100753008229F582E5833AF5830208A65007E92545
:1007630082F8020799BBFE07E92582F80208B2E581
:100773008229F582E5833AF5830208BEBB01078926
:10078300828A830207EE5005E9F80207E2BBFE0501
:10079300E9F80208F722E6FC08E6FD08E6FE08E6AB
:1007A300FF22E6FB08E6F908E6FA08E6CBF822BBE7
:1007B300010DE58229F582E5833AF5830208CE50DF
:1007C30007E92582F80207A5BBFE07E92582F8029F
:1007D30008DAE58229F582E5833AF5830208E7EC36
:1007E300F608EDF608EEF608EFF622ECF0A3EDF0CE
:1007F300A3EEF0A3EFF022D083D082E493F6087443
:100803000193F608740293F608740393F674047361
:10081300A8828583F0D083D08212082A12082A1274
:10082300082A12082AE473E493A3C583C5F0C58399
:10083300C8C582C8F0A3C583C5F0C583C8C582C82F
:1008430022FAE6FB0808E6F925F0F618E6CA3AF6B6
:1008530022D083D082F8E4937012740193700DA3B5
:10086300A393F8740193F5828883E4737402936805
:1008730060EFA3A3A380DFEF4E6012EF60010EEDE4
:10088300BB010B89828A83F0A3DFFCDEFA2289F0A5
:100893005007F709DFFCA9F022BBFEFCF309DFFCDC
:1008A300A9F022E0FCA3E0FDA3E0FEA3E0FF22E227
:1008B300FC08E2FD08E2FE08E2FF22E493FC740177
:1008C30093FD740293FE740393FF22E0F8A3E0F90F
:1008D300A3E0FAA3E0FB22E2FB08E2F908E2FA084C
:1008E300E2CBF822E493F8740193F9740293FA7457
:1008F3000393FB22ECF208EDF208EEF208EFF2228A
:10090300E54E243AF8E6054E227837300702783A66
:10091300E475F0011208440206932000EB7F2ED207
:10092300008018EF540F2490D43440D4FF30040BCC
:10093300EF24BFB41A0050032461FFE54F60021592
:100943004F0552E5527002055130070D7837E475B3
:10095300F001120844EF0206D9021C207403D207E7
:100963008003E4C207F54E8B378A388939E4F54FA3
:10097300F551F552E54F60077F2012093E80F5756A
:1009830050FFC201C200C202C203C205C206C208AE
:1009930012090CFF700D3007057F0012094FAF528B
:1009A300AE5122B4255FC2D5C20412090CFF24D074
:1009B300B40A00501A75F00A784F30D50508B6FF0F
:1009C3000106C6A426F620D5047002D20380D924DA
:1009D300CFB41A00EF5004C2E5D204020C3CD2019A
:1009E30080C6D20080C0D20280BCD2D580BAD205E4
:1009F30080B47F2012093E2002077401B54F0040E6
:100A0300F1120903FF12093E020977D208D20680C8
:100A130095120903FB120903FA120903F94A4B70F1
:100A23000679337A0D7BFF20022EE54F602A7E0084
:100A33008E827583001206AC60060EEE655070F070
:100A4300C2D5EBC0E0EAC0E0E9C0E0EE120C9CD0F6
:100A5300E0F9D0E0FAD0E0FB120693FF60AAEBC006
:100A6300E0EAC0E0E9C0E012093ED0E02401F9D099
:100A7300E03400FAD0E0FBE5500460DCD550D980C7
:100A830087D20280A2120C7F60F7E5507001041236
:100A93000303A950600DE550600914F550120D26AB
:100AA300EF60F3EA30E702F404C3995077EAF425E0
:100AB300500430E701E404F550800D120C7F60C14F
:100AC300EA05502550120303EA784DF630E701E4B6
:100AD300255004D5500420050114120C9CE4C0E0F9
:100AE300120D26784DE6601320E70714F612092647
:100AF300802204F6D0E014C0E07F00120926E550FE
:100B0300600712091D1550800B30050312091DD013
:100B1300E0020977D0E00480C5120C7F60A0E550A5
:100B230004120303784DEAF6E55020050260010440
:100B33002404120C9C74FF04C0E0120D2612092633
:100B4300E550200502600312091DD0E0B550E87F8F
:100B530045120930784DE67F2B30E7047F2DF404EE
:100B6300C0E012093ED0E075F00A84C0F0120927F4
:100B7300D0E0120927020977791080027908C206AA
:100B8300C2088008D2D5790A8004790AC2D5E55013
:100B9300047002F550E4FAFDFEFF120903FC7B0822
:100BA300200113120903FD7B1030000A120903FE12
:100BB300120903FF7B20EC3382D592D55013C3E493
:100BC3003000069FFFE49EFEE42001039DFDE49CAC
:100BD300FCE4CBF8C201EC700CCFCECDCCE824F80A
:100BE300F870F38017C3EF33FFEE33FEED33FDEC04
:100BF30033FCEB33FB994002FB0FD8E9EB300105E3
:100C0300F8D0E0C448B201C0E00AEC4D4E4F782062
:100C13007B0070C2EAB5500040BCC0E0120C9ED00D
:100C2300F0D0E0200104C4C0E0C4B201C0F0120956
:100C330027D0F0D5F0EB0209771208540A14530BAE
:100C43007B5809E54C09E1420B7F4F0B87440B8727
:100C53004909FA430B8D550ABE460B1C450A8847C2
:100C63000D535009E92D09ED2E0A102B09F1230A22
:100C73000E200D3C2A09A94800000A08E550B4FFDC
:100C830003755006120903FC120903FD120903FE42
:100C9300120903FF7846020332790AA2D52003140E
:100CA300300509B910020404B9080104A2D52006CD
:100CB300025001042002689202B54F005034C0E094
:100CC3007F203003197F30A20272067205500F1283
:100CD3000CF5C202C206C205C2087F30800F300580
:100CE30003E9C0E012093E300503D0E0F9D0E0B5D6
:100CF3004FCC3005177F30B9100C12093E7F5830A6
:100D030004077F788003B9080312093E3002057F88
:100D13002D02093E7F202008F87F2B2006F3229224
:100D23000280CF7F00B4070050052446F8E6FF2277
:100D3300286E756C6C2900D2011209033001F8C2C8
:100D430001784F30D50108F60209A92D50434958BF
:100D53001209032403B405004001E4900D4E9312DD
:100D6300092F743A12092FD203754F04020B7B7BB0
:100D7300FF7A1C79B578537C007D007E007F0812D2
:100D8300066D78841207FA00000000121171E478EE
:100D930080F608F67880E6FE08E6C3943CEE6480AD
:100DA30094804003020E2B18E6FE08E67802C33354
:100DB300CE33CED8F92408F58274003EF583E0FCE7
:100DC300A3E0FDA3E0FEA3E0FFE47BE87A03F9F8E8
:100DD300C312070B50477884120799C004C005C09B
:100DE30006C0077880E6FE08E67802C333CE33CE2A
:100DF300D8F92408F58274003EF583E0F8A3E0F9FE
:100E0300A3E0FAA3E0D007D006D005D0042FFFEE6D
:100E13003AFEED39FDEC38FC78841207E27881065E
:100E2300E618700106020D97E47880F608F67880DC
:100E3300E6FE08E6C3940AEE648094804003020F42
:100E4300A8E408F608F67882E6FE08E6C3943CEECA
:100E5300648094804003020F9D18E6FE08E6780242
:100E6300C333CE33CED8F924F8F58274003EF5832C
:100E7300E0A3E0A3E0FEA3E0FBAA067880E6FE0879
:100E8300E67802C333CE33CED8F924ECF58274016D
:100E93003EF583E0A3E0A3E0FEA3E0C39BFFEE9A4D
:100EA300FE121C82C3EF94E8EE648094835010E436
:100EB3007F01FEFDFCC004C005C006C007800DE431
:100EC300FFFEFDFCC004C005C006C0077880E6FE37
:100ED30008E67802C333CE33CED8F924ECF5827416
:100EE300013EF583E0F8A3E0F9A3E0FAA3E0D0071D
:100EF300D006D005D0045FFFEE5AFEED59FDEC5845
:100F0300FC4D4E4F7003020F927882E6FE08E6789E
:100F130002C333CE33CED8F924F8F58274003EF5FC
:100F230083E0FCA3E0FDA3E0FEA3E0FFEC4D4E4F06
:100F3300605D7880E6FE08E67802C333CE33CED810
:100F4300F924ECF58274013EF583E0FCA3E0FDA3F4
:100F5300E0FEA3E0F55A8E598D588C577882E6FE51
:100F630008E67802C333CE33CED8F924F8F5827479
:100F7300003EF583E0FCA3E0FDA3E0FEA3E0F5560D
:100F83008E558D548C537880760008760A800B78C2
:100F93008306E618700106020E49788106E618708A
:100FA3000106020E31E47F107E27FDFC78841207D0
:100FB300A5D312070B4015AF5AAE59AD58AC57EC39
:100FC3004D4E4F60077B007A00795322E4F55AF5C2
:100FD30059F558F557F556F555F554F553FB7A0081
:100FE300795322C0E0C0F0C083C082C0D075D0085E
:100FF30090021D12081300000000E59A20E003028E
:101003001166539AFE3009030210EEAF9BEF1208EC
:1010130054103300106301107702107D0310830412
:101023001089D01094D110CFFE10D9FF000010E327
:101033007BFF7A1379951209657BFF7A1379A18572
:101043001B3D851A3C85193B85183A12096512190F
:101053003D12198C1219DB7BFF7A1379B50210E963
:101063007BFF7A1379A1851B3D851A3C85193B8546
:10107300183A807212193D02116612198C02116618
:101083001219DB021166121AC57BFF7A1379B88035
:1010930055120D7212072FC00CC00DC00EC00F12D7
:1010A3000D72E92404F9E43AFA12072F8F418E40B6
:1010B3008D3F8C3ED00FD00ED00DD00C8F3D8E3C8B
:1010C3008D3B8C3A7BFF7A1379D4801AD2097BFF4C
:1010D3007A1379FC8010C2097BFF7A14790E80069B
:1010E3007BFF7A14792C1209658078900218E0C38B
:1010F300940440597403F090021DE0FCA3E0FDA3A7
:10110300E0FEA3E0FF780812071C90021D1207EE11
:1011130090021DE0F8A3E0F9A3E0FAA3E0FB90023C
:1011230018E02419F582E43402F583E0FFEB4FFF66
:10113300EAFEE9FDE8FC90021D1207EE900218E0BA
:1011430014F0E0C3940050AF900218E4F09002183A
:10115300E02419F582E43402F583E59BF09002184C
:10116300E004F0D0D0D082D083D0F0D0E0327B0145
:101173007A0079F8121293E4F55BF55CC3E55C94AD
:101183003BE55B648094804003021292E55CAE5BB6
:101193007802C333CE33CED8F924FCF58274003EF3
:1011A300F583E0FCA3E0FDA3E0FEA3E0FFEC4D4EDE
:1011B3004F700302126AE55CAE5B7802C333CE3331
:1011C300CED8F924F8F58274003EF583E0FCA3E061
:1011D300FDA3E0FEA3E0FFE4FBFAF9F8C312070B5B
:1011E300400302126AE55CAE5B7802C333CE33CEB2
:1011F300D8F92408F974003E755D01F55E895FE551
:101203005CAE5B7802C333CE33CED8F924F8F582D3
:1012130074003EF583E0F8A3E0F9A3E0FAA3E0FB52
:10122300C000C001C002C003E55CAE5B7802C333FB
:10123300CE33CED8F924FCF58274003EF583E0FC6E
:10124300A3E0FDA3E0FEA3E0D003D002D001D000D1
:10125300C39BFFEE9AFEED99FDEC98FCAB5DAA5E95
:10126300A95F12077F801DE55CAE5B7802C333CEB6
:1012730033CED8F92408F58274003EF5831208139F
:1012830000000000055CE55C7002055B02117F2233
:101293008B608A618962E4F563F564C3E564943B1A
:1012A300E56364809480400302139475650075665A
:1012B30001C3E566943CE5656480948040030213B2
:1012C30089E56624FFFFE56534FFFEEF7802C3334B
:1012D300CE33CED8F9AB60AA61A962F5828E8312B0
:1012E300074FC004C005C006C007E566AE657802B7
:1012F300C333CE33CED8F9AB60AA61A962F5828E2F
:10130300831207B2D007D006D005D004C312070B4F
:101313005069E56624FFFFE56534FFFEEF7802C3FD
:1013230033CE33CED8F92562F9E5613E856067F5A2
:10133300688969E566AE657802C333CE33CED8F9E2
:101343002562F9E5613E85606AF56B896CAB67AA36
:1013530068A96912072F78881207E2AB6AAA6BA9FA
:101363006C12072FAB67AA68A96912077F788812E6
:101373000799AB6AAA6BA96C12077F0566E56670CD
:101383000205650212B40564E56470020563021286
:101393009E22414C4C2044415441207B2000564125
:1013A3004C5545204F46204E4F573A20256C75200B
:1013B3000A00207D00446F20436C65617220616CDC
:1013C3006C20646174612073756363657373200AB1
:1013D3000054686520616E616C797A65202D2073F5
:1013E30068616B653A256C75200A2D2073776974E3
:1013F30063683A256C75200A00456E746572206F28
:1014030072646572206D6F64650A00457865637563
:10141300746520616E6420436C6F7365206F726422
:101423006572206D6F64650A004E4F205245535517
:101433004C5400546865207368616B652064617463
:1014430061203A0A00256C75200A005468652073F0
:1014530077697463682064617461203A0A00546890
:1014630065206265747765656E2064617461203AF6
:101473000A008F568C578D58D3E5589400E557646E
:101483008094804004D2858002C285755E59755D63
:101493009A120097AF58AE57121C827C017D9012AE
:1014A30006EBE41CFDA85E1207E2AC56E412024E02
:1014B300C004C005C006C007A85E120799E4120263
:1014C30044A804A905AA06AB07D007D006D005D0C7
:1014D300041201A77B007AC07928784B12009E1270
:1014E3000282C3E49FFFE49EFE7880F608EFF6D302
:1014F3009400EE94005004E4FEFF227880E6FC089A
:10150300E6F5D5ECF5D4AF5CAE5BAD5AAC59A85D4E
:101513001207E27880E6FE08E6FF22C0E0C0F0C0D2
:1015230083C082C0D075D000C000C001C002C00318
:10153300C004C005C006C007900000E0F8A3E0F9AE
:10154300A3E0FAA3E0FBC3E51B9BFFE51A9AFEE5C4
:101553001999FDE51898FCE47BE87A03F9F8D312AE
:10156300070B502EC2A8AF1BAE1AAD19AC189000D2
:10157300001207EEAF1BAE1AAD19AC18121897AFD5
:101583001BAE1AAD19AC18AB1CAA1DA91E12077FFE
:10159300D2A8D007D006D005D004D003D002D00102
:1015A300D000D0D0D082D083D0F0D0E032787FE4A6
:1015B300F6D8FD7581AA0215F7020091E493A3F80A
:1015C300E493A34003F68001F208DFF48029E49357
:1015D300A3F85407240CC8C333C4540F4420C8834E
:1015E3004004F456800146F6DFE4800B0102040850
:1015F30010204080901A2AE47E019360BCA3FF541C
:101603003F30E509541FFEE493A360010ECF54C09D
:1016130025E060A840B8E493A3FAE493A3F8E49325
:10162300A3C8C582C8CAC583CAF0A3C8C582C8CA2D
:10163300C583CADFE9DEE780BEC0E0C0F0C083C077
:1016430082C0D075D000C000C001C002C003C00476
:10165300C005C006C007C2AA78A67601081207A56E
:10166300C3E51B9BFFE51A9AFEE51999FDE518985A
:10167300FCE47BF47A01F9F8C312070B501CAF1B8F
:10168300AE1AAD19AC181218EAAF1BAE1AAD19ACED
:1016930018AB1CAA1DA91E12077FD2AAD007D00619
:1016A300D005D004D003D002D001D000D0D0D08256
:1016B300D083D0F0D0E032C0E0C0F0C083C082C09D
:1016C300D075D000C000C001C002C003C004C00573
:1016D300C006C007E4FFFEFDFC789A1207A5D312EB
:1016E300070B4004B286800353D1F7789A12079907
:1016F300EF24FFFFEE34FFFEED34FFFDEC34FFFC7F
:10170300789A1207E2D007D006D005D004D003D0D0
:1017130002D001D000D0D0D082D083D0F0D0E0323C
:1017230078A71207A5C3E51B9BFFE51A9AFEE519E7
:1017330099FDE51898FC787C1207E278A6E6640127
:10174300704430B2417FC07ED47D01FC787C1207A7
:10175300A5D312070B402F12000E120D7212072F82
:10176300EC4D4E4F6019121841AF1BAE1AAD19ACB8
:101773001878A21207E2E478A6F6121AC58004E4E8
:1017830078A6F6121C9A22C0E0C0F0C083C082C0C3
:10179300D075D010E51B2401F51BE4351AF51AE4C6
:1017A3003519F519E43518F518789E120799AB1B0E
:1017B300AA1AA919A818C312070B401D900222E008
:1017C30004F07006900221E004F0751B00751A0006
:1017D30075190075180075C720D0D0D082D083D07A
:1017E300F0D0E032AF1BAE1AAD19AC1878941207E3
:1017F300E2AF1BAE1AAD19AC1878901207E2121CB7
:10180300AB121B6F12005612172378901207A5C351
:10181300E51B9BFFE51A9AFEE51999FDE51898FC6F
:10182300E47BE87A03F9F8C312070B50D1AF1BAE80
:101833001AAD19AC1878901207E2B2CD80C012002D
:101843000E121B9D121C5E7F887E13121B00121C3E
:101853005E7D0A7F9C7EFF1200167D0A7F9C7EFFC1
:10186300120016121CAF7D0A7F9C7EFF1200167DAC
:101873000A7F9C7EFF1200167D047FE77EFF120025
:10188300167F887E13121B00121C6A121CB2121BD5
:101893009D021C9A8F2E8E2D8D2C8C2B900004E094
:1018A300FEA3E0643C4E7006900004F0A3F09000A9
:1018B30004E0FEA3E07802C333CE33CED8F924F894
:1018C300F58274003EAF82F52F8F30AF2EAE2DAD73
:1018D3002CAC2BF5831207EE900005E004F07006A4
:1018E300900004E004F0228F348E338D328C3190DB
:1018F3000006E0FEA3E0640A4E7006900006F0A323
:10190300F0900006E0FEA3E07802C333CE33CED8D6
:10191300F924ECF58274013EAF82F5358F36AF348E
:10192300AE33AD32AC31F5831207EE900007E0041D
:10193300F07006900006E004F0227BFF7A147936FB
:10194300120965E47870F67BFF7A1479487870E6BB
:10195300FF3395E0FEEF7802C333CE33CED8F924BC
:10196300F8F58274003EF583E0FCA3E0FDA3E0FEFE
:10197300A3E0F53D8E3C8D3B8C3A120965787006E9
:10198300C3E6648094BC40BF227BFF7A14794E1275
:101993000965E47870F67BFF7A1479487870E6FF7E
:1019A3003395E0FEEF7802C333CE33CED8F924EC7F
:1019B300F58274013EF583E0FCA3E0FDA3E0FEA302
:1019C300E0F53D8E3C8D3B8C3A120965787006C379
:1019D300E66480948A40BF227BFF7A1479611209FE
:1019E30065E47870F67BFF7A1479487870E6FF3304
:1019F30095E0FEEF7802C333CE33CED8F92408F551
:101A03008274003EF583E0FCA3E0FDA3E0FEA3E0C7
:101A1300F53D8E3C8D3B8C3A120965787006C3E622
:101A2300648094BC40BF22048C006DDD0001987873
:101A3300011FFF049E7FFFFFFF049A0000000001C7
:101A4300990101A60004A20000000004A700000001
:101A530000420004000042000600004400000000B1
:101A63000000031C0000A7C1094402190000000084
:101A73004102180400C0E0C0F0C083C082C0D0752A
:101A8300D000C000C001C002C003C004C005C0062E
:101A9300C007121C947DFB7CFF7F0112147512009A
:101AA30006900223747DF0D007D006D005D004D071
:101AB30003D002D001D000D0D0D082D083D0F0D0D8
:101AC300E032E4F553F554900004F0A3F0A3F0A33F
:101AD300F0FE7FF4FD7B017A0079F812087A7E002C
:101AE3007F2C7D007B017A0179EC12087A7E007FDE
:101AF300F07D007B017A00790812087A228E538FD9
:101B030054AF1BAE1AAD19AC1878801207E2121C41
:101B1300AB78801207A5C3E51B9BFBE51A9AFAE590
:101B23001999F9E51898F8AE53AF54E4FCFDD312B4
:101B3300070B40DA22E4F594F592F596F5B2F5B485
:101B4300F593F591F595F5B1F5B35393F043940FF0
:101B530053C9DF43CA207580FF7590FF75A0FF75D9
:101B6300B0FF75C0FF5380F053C8DF2220A20C538F
:101B7300AFFE7D017FF67EFF12001620A10C43AF5E
:101B8300017D017F0A7E0012001620A006121C4F61
:101B9300121C7620A30312184122121CA3121C94B8
:101BA300E4900223F07D017F0A7E0012001690026A
:101BB30023E004F0E0C3648094AD40E922121B38B3
:101BC30043C740121C40121BF8121C8E121CA71292
:101BD3000046121C0D121C94021CB2120006121CA9
:101BE300ABE4FFFEFDFC789A1207A5D312070B5056
:101BF300ED121C9422438E805389F0758ACD758C27
:101C0300D4C28DD2AFD2A9D28C22759A50438E04FE
:101C130075D7E075D6FE43B501438E102253AFFE50
:101C23008F9BE59A30E1FB539AFD43AF012243D1E9
:101C33000275D5CD75D4D443AF20021C9F00007F1D
:101C4300557E0C7D9BDDFEDEFCDFFA2200007F1655
:101C53007E037DE3DDFEDEFCDFFA22538FEFD280CD
:101C6300121C4F438F1022538FEFC280121C4F431D
:101C73008F1022538FEFB280121C4F438F1022EE2E
:101C830030E707C3E49FFFE49EFE22121CA3021C5D
:101C930031120097C28422D2A8D2AA2243D10822A9
:101CA300438F102275C1372275C13722D28122C2D8
:0A1CB3008122000000000000000084
:00000001FF
